{
  "contractName": "TodoContract",
  "abi": [
    {
      "anonymous": false,
      "inputs": [
        {
          "indexed": false,
          "internalType": "string",
          "name": "task",
          "type": "string"
        },
        {
          "indexed": false,
          "internalType": "uint256",
          "name": "taskNumber",
          "type": "uint256"
        }
      ],
      "name": "TaskCreated",
      "type": "event"
    },
    {
      "anonymous": false,
      "inputs": [
        {
          "indexed": false,
          "internalType": "uint256",
          "name": "taskNumber",
          "type": "uint256"
        }
      ],
      "name": "TaskDeleted",
      "type": "event"
    },
    {
      "anonymous": false,
      "inputs": [
        {
          "indexed": false,
          "internalType": "string",
          "name": "task",
          "type": "string"
        },
        {
          "indexed": false,
          "internalType": "uint256",
          "name": "taskId",
          "type": "uint256"
        },
        {
          "indexed": false,
          "internalType": "bool",
          "name": "isCompleted",
          "type": "bool"
        }
      ],
      "name": "TaskIsCompletedToggled",
      "type": "event"
    },
    {
      "anonymous": false,
      "inputs": [
        {
          "indexed": false,
          "internalType": "string",
          "name": "task",
          "type": "string"
        },
        {
          "indexed": false,
          "internalType": "uint256",
          "name": "taskId",
          "type": "uint256"
        }
      ],
      "name": "Taskupdated",
      "type": "event"
    },
    {
      "inputs": [],
      "name": "taskCount",
      "outputs": [
        {
          "internalType": "uint256",
          "name": "",
          "type": "uint256"
        }
      ],
      "stateMutability": "view",
      "type": "function",
      "constant": true
    },
    {
      "inputs": [
        {
          "internalType": "uint256",
          "name": "",
          "type": "uint256"
        }
      ],
      "name": "todos",
      "outputs": [
        {
          "internalType": "uint256",
          "name": "index",
          "type": "uint256"
        },
        {
          "internalType": "string",
          "name": "taskName",
          "type": "string"
        },
        {
          "internalType": "bool",
          "name": "isComplete",
          "type": "bool"
        }
      ],
      "stateMutability": "view",
      "type": "function",
      "constant": true
    },
    {
      "inputs": [
        {
          "internalType": "string",
          "name": "_taskName",
          "type": "string"
        }
      ],
      "name": "createTask",
      "outputs": [],
      "stateMutability": "nonpayable",
      "type": "function"
    },
    {
      "inputs": [
        {
          "internalType": "uint256",
          "name": "_taskId",
          "type": "uint256"
        },
        {
          "internalType": "string",
          "name": "_taskName",
          "type": "string"
        }
      ],
      "name": "updateTask",
      "outputs": [],
      "stateMutability": "nonpayable",
      "type": "function"
    },
    {
      "inputs": [
        {
          "internalType": "uint256",
          "name": "_taskId",
          "type": "uint256"
        }
      ],
      "name": "toggelComplete",
      "outputs": [],
      "stateMutability": "nonpayable",
      "type": "function"
    },
    {
      "inputs": [
        {
          "internalType": "uint256",
          "name": "_taskId",
          "type": "uint256"
        }
      ],
      "name": "deleteTask",
      "outputs": [],
      "stateMutability": "nonpayable",
      "type": "function"
    }
  ],
  "bytecode": "0x608060405234801561001057600080fd5b50610e59806100206000396000f3fe608060405234801561001057600080fd5b50600436106100625760003560e01c8063111002aa14610067578063560f31921461008357806386533f6c1461009f578063b6cb58a5146100bb578063bc8bc2b4146100d9578063e40080821461010b575b600080fd5b610081600480360381019061007c9190610822565b610127565b005b61009d600480360381019061009891906108a1565b6101ff565b005b6100b960048036038101906100b491906108ce565b61027b565b005b6100c3610409565b6040516100d09190610939565b60405180910390f35b6100f360048036038101906100ee91906108a1565b61040f565b604051610102939291906109ee565b60405180910390f35b610125600480360381019061012091906108a1565b6104ce565b005b6040518060600160405280600054815260200182815260200160001515815250600160008054815260200190815260200160002060008201518160000155602082015181600101908161017a9190610c38565b5060408201518160020160006101000a81548160ff0219169083151502179055509050506000808154809291906101b090610d39565b91905055507fed1d390c812a65783a09786b88b832ef75bb16882fbc56eeea9bf61a4c1a8ac78160016000546101e69190610d81565b6040516101f4929190610db5565b60405180910390a150565b6001600082815260200190815260200160002060008082016000905560018201600061022b919061066b565b6002820160006101000a81549060ff021916905550507fd078b251d950cc55c44340be1db732337ef4939a76e1367ee271ad2cb19c46af816040516102709190610939565b60405180910390a150565b600060016000848152602001908152602001600020604051806060016040529081600082015481526020016001820180546102b590610a5b565b80601f01602080910402602001604051908101604052809291908181526020018280546102e190610a5b565b801561032e5780601f106103035761010080835404028352916020019161032e565b820191906000526020600020905b81548152906001019060200180831161031157829003601f168201915b505050505081526020016002820160009054906101000a900460ff1615151515815250509050604051806060016040528084815260200183815260200182604001511515815250600160008581526020019081526020016000206000820151816000015560208201518160010190816103a79190610c38565b5060408201518160020160006101000a81548160ff0219169083151502179055509050507fad18a3956276507b196492615d231dffaef4b7e765e94ad6632913714c67aa1882846040516103fc929190610db5565b60405180910390a1505050565b60005481565b600160205280600052604060002060009150905080600001549080600101805461043890610a5b565b80601f016020809104026020016040519081016040528092919081815260200182805461046490610a5b565b80156104b15780601f10610486576101008083540402835291602001916104b1565b820191906000526020600020905b81548152906001019060200180831161049457829003601f168201915b5050505050908060020160009054906101000a900460ff16905083565b6000600160008381526020019081526020016000206040518060600160405290816000820154815260200160018201805461050890610a5b565b80601f016020809104026020016040519081016040528092919081815260200182805461053490610a5b565b80156105815780601f1061055657610100808354040283529160200191610581565b820191906000526020600020905b81548152906001019060200180831161056457829003601f168201915b505050505081526020016002820160009054906101000a900460ff16151515158152505090506040518060600160405280838152602001826020015181526020018260400151151515815250600160008481526020019081526020016000206000820151816000015560208201518160010190816105ff9190610c38565b5060408201518160020160006101000a81548160ff0219169083151502179055509050507f07c2a3ff66ba6f508ed8ebef02a888a2fbd35d146f5ea1da888d41fbb0e0965f81602001518383604001511560405161065f93929190610de5565b60405180910390a15050565b50805461067790610a5b565b6000825580601f1061068957506106a8565b601f0160209004906000526020600020908101906106a791906106ab565b5b50565b5b808211156106c45760008160009055506001016106ac565b5090565b6000604051905090565b600080fd5b600080fd5b600080fd5b600080fd5b6000601f19601f8301169050919050565b7f4e487b7100000000000000000000000000000000000000000000000000000000600052604160045260246000fd5b61072f826106e6565b810181811067ffffffffffffffff8211171561074e5761074d6106f7565b5b80604052505050565b60006107616106c8565b905061076d8282610726565b919050565b600067ffffffffffffffff82111561078d5761078c6106f7565b5b610796826106e6565b9050602081019050919050565b82818337600083830152505050565b60006107c56107c084610772565b610757565b9050828152602081018484840111156107e1576107e06106e1565b5b6107ec8482856107a3565b509392505050565b600082601f830112610809576108086106dc565b5b81356108198482602086016107b2565b91505092915050565b600060208284031215610838576108376106d2565b5b600082013567ffffffffffffffff811115610856576108556106d7565b5b610862848285016107f4565b91505092915050565b6000819050919050565b61087e8161086b565b811461088957600080fd5b50565b60008135905061089b81610875565b92915050565b6000602082840312156108b7576108b66106d2565b5b60006108c58482850161088c565b91505092915050565b600080604083850312156108e5576108e46106d2565b5b60006108f38582860161088c565b925050602083013567ffffffffffffffff811115610914576109136106d7565b5b610920858286016107f4565b9150509250929050565b6109338161086b565b82525050565b600060208201905061094e600083018461092a565b92915050565b600081519050919050565b600082825260208201905092915050565b60005b8381101561098e578082015181840152602081019050610973565b60008484015250505050565b60006109a582610954565b6109af818561095f565b93506109bf818560208601610970565b6109c8816106e6565b840191505092915050565b60008115159050919050565b6109e8816109d3565b82525050565b6000606082019050610a03600083018661092a565b8181036020830152610a15818561099a565b9050610a2460408301846109df565b949350505050565b7f4e487b7100000000000000000000000000000000000000000000000000000000600052602260045260246000fd5b60006002820490506001821680610a7357607f821691505b602082108103610a8657610a85610a2c565b5b50919050565b60008190508160005260206000209050919050565b60006020601f8301049050919050565b600082821b905092915050565b600060088302610aee7fffffffffffffffffffffffffffffffffffffffffffffffffffffffffffffffff82610ab1565b610af88683610ab1565b95508019841693508086168417925050509392505050565b6000819050919050565b6000610b35610b30610b2b8461086b565b610b10565b61086b565b9050919050565b6000819050919050565b610b4f83610b1a565b610b63610b5b82610b3c565b848454610abe565b825550505050565b600090565b610b78610b6b565b610b83818484610b46565b505050565b5b81811015610ba757610b9c600082610b70565b600181019050610b89565b5050565b601f821115610bec57610bbd81610a8c565b610bc684610aa1565b81016020851015610bd5578190505b610be9610be185610aa1565b830182610b88565b50505b505050565b600082821c905092915050565b6000610c0f60001984600802610bf1565b1980831691505092915050565b6000610c288383610bfe565b9150826002028217905092915050565b610c4182610954565b67ffffffffffffffff811115610c5a57610c596106f7565b5b610c648254610a5b565b610c6f828285610bab565b600060209050601f831160018114610ca25760008415610c90578287015190505b610c9a8582610c1c565b865550610d02565b601f198416610cb086610a8c565b60005b82811015610cd857848901518255600182019150602085019450602081019050610cb3565b86831015610cf55784890151610cf1601f891682610bfe565b8355505b6001600288020188555050505b505050505050565b7f4e487b7100000000000000000000000000000000000000000000000000000000600052601160045260246000fd5b6000610d448261086b565b91507fffffffffffffffffffffffffffffffffffffffffffffffffffffffffffffffff8203610d7657610d75610d0a565b5b600182019050919050565b6000610d8c8261086b565b9150610d978361086b565b9250828203905081811115610daf57610dae610d0a565b5b92915050565b60006040820190508181036000830152610dcf818561099a565b9050610dde602083018461092a565b9392505050565b60006060820190508181036000830152610dff818661099a565b9050610e0e602083018561092a565b610e1b60408301846109df565b94935050505056fea2646970667358221220b493c2e6c61cb43fb8ed8ba319bb9d276e4019be3bab95496375101859a115d664736f6c63430008110033",
  "immutableReferences": {},
  "source": "// SPDX-License-Identifier: Unlicensed\npragma solidity ^0.8.9;\n\ncontract TodoContract {\n    uint256 public taskCount;\n\n    struct Task {\n        uint256 index;\n        string taskName;\n        bool isComplete;\n    }\n\n    mapping(uint256 => Task) public todos;\n\n    event TaskCreated(string task, uint256 taskNumber);\n    event Taskupdated(string task, uint256 taskId);\n    event TaskIsCompletedToggled(string task, uint256 taskId, bool isCompleted);\n    event TaskDeleted(uint256 taskNumber);\n\n    function createTask(string memory _taskName) public {\n        todos[taskCount] = Task(taskCount, _taskName, false);\n        taskCount++;\n        emit TaskCreated(_taskName, taskCount - 1);\n    }\n\n    function updateTask(uint256 _taskId, string memory _taskName) public {\n        Task memory currTask = todos[_taskId];\n        todos[_taskId] = Task(_taskId, _taskName, currTask.isComplete);\n        emit Taskupdated(_taskName, _taskId);\n    }\n\n    function toggelComplete(uint256 _taskId) public {\n        Task memory currTask = todos[_taskId];\n        todos[_taskId] = Task(_taskId, currTask.taskName, !currTask.isComplete);\n\n        emit TaskIsCompletedToggled(currTask.taskName, _taskId, !currTask.isComplete);\n    }\n\n    function deleteTask(uint256 _taskId) public {\n        delete todos[_taskId];\n        emit TaskDeleted(_taskId);\n    }\n}",
  "sourcePath": "/Users/takagihrs/Desktop/MyProject/dapp/mobile-dapp/backend/contracts/TodoContract.sol",
  "compiler": {
    "name": "solc",
    "version": "0.8.17+commit.8df45f5f.Emscripten.clang"
  },
  "schemaVersion": "3.4.10",
  "updatedAt": "2022-10-18T06:29:42.286Z",
  "networkType": "ethereum",
  "devdoc": {
    "kind": "dev",
    "methods": {},
    "version": 1
  },
  "userdoc": {
    "kind": "user",
    "methods": {},
    "version": 1
  }
}